00000000000684000036MOKI0101684028515210MF0004800000104767292.00042014
081151037990000001790027001313110005Yuli Puspita                  MDGT
017505518970000001650027001313110003Devi Wahyuni                  STGT
084302344810000001650027001314010121Mirta  Puspa Windari          STGT
083750687500000002267333001313110001Sumiati                       TLGT
081902635000000001347430001314020143Hidayatul Annisa              MDGT
011919701310000001259187001314010113Nirmayanti                    STGT
081902617610000001407673001314010111Mardiansyah                   DRGT
085750301370000001873933001314010110Maulia                        TLGT
001152444130000001865250001314020139ENNY KUSTYANINGTYAS           MDMT
005612421180000001771950001314010136YENI RAHMAWATI                MDMT
087350255260000002025000001314010093M. YUSUF HAMID                MDMT
043502387900000001756950001314010073WIDYATININGSIH                MDMT
043503807660000002227645001314010074NOFI LIYANA                   TLES
011919771950000001705173001314010096SRI WAHYUNI                   MDMT
083051726490000001626500001314030163JULIANA CHAN                  MDMT
013021881780000002389500001314010095YUNINDA MEGAYANTI             MDMT
011306047370000002389500001314010087YULI EKOWATI                  MDMT
016525007780000002649750001314010105REZEKI HANDAYANI              MDMT
068402889410000002616250001314010098ROSIDAWATI                    MDMT
028714762780000002649750001314010082SITI RACHMAWATI               MDMT
016625716900000002649750001314010083SULISTIYANI                   MDMT
068402882750000002649750001314010097WARIATIN                      MDMT
071203406750000002616250001314010084WARSITI                       MDMT
077501826100000002343000001314010075NENI FATIMAH                  MDMT
077505638770000002283500001314010076NOPIYANTI                     MDMT
017613046960000002801000001314010077UMI FITRIA                    TLWE
028308917250000001692000001314030166YANI  MULYANI                 MDMT
013410073940000002493500001314010099MUHENI                        MDMT
024654700610000001820625001314010089ANGGORO EKO                   MDMT
024652128430000002387987001314010088SRI ASIH                      TLCT
016919288240000001634625001314010090INA MARIANA                   MDMT
050650628090000002421000001314010086RITA OKTAFIA                  MDMT
025818202260000002541000001314010085EVI PUSPITASARI               MDMT
081750917310000001658625001314010133DINAR INDRI HASTUTI           MDMT
003725798790000001658625001314010091SRI SUJARWATI                 MDMT
012209999270000001658625001314010102SEPTI AYU MAHANANI            MDMT
055202648010000002649750001314010138NURAZIZAH                     MDMT
024816687960000002549250001314010137NENENG YULIYAH                MDMT
016629406950000002582750001314010079MUTI HARAH                    MDMT
047612758900000002582750001314010078MULYATI                       MDMT
065710257010000002616250001314010103LIA SUSANTI                   MDMT
088506685410000002649750001314010081DIAN HANDAYANI                MDMT
053151088510000002362750001314020159EKA PURWANTI                  SPGM
076004255140000002409750001314010132DEVI APRIYANTI                SPGM
049103267200000002386250001314010104ADE AFRIANI                   SPGM
030912843220000002649750001314010107ABIDAH                        MDMT
027615361940000003018825001314010080NINA PRAVITASARI              TLJB
071308759250000002080750001314020161YULIA INDRI PANGESTUTI        SPGM
