00000000000684000036MOKI0301684028515210MF0000400000007663330.00032014
087350255260000002029000001314010093M YUSUF                       MDMT
043502387900000001800760001314010073WIDIATININGSIH                MDMT
033204290390000001501625001314010135DWI DESI ELIS SANDI           MDMT
043503807660000002331945001314010074NOFI LIYANA                   MDMT
