00000000000684000036MOKI0201684028515210MF0013900000252649662.00052014
049103267200000002433250001314010104ADE AFRIANI                   SPGM
005612421180000001746950001314010136YENI RAHMAWATI                MDMT
050650628090000002821000001314010086RITA OKTAFIA                  MDMT
083051726490000002074500001314030163JULIANA CHAN                  MDMT
042303032530000002127750001314040168EKA YULIANTI                  SPGM
076004255140000002409750001314010132DEVI APRIYANTI                SPGM
053151088510000002409750001314020159EKA PURWATI                   SPGM
065710257010000002616250001314010103LIA SUSANTI                   MDMT
071308759250000002409750001314020161YULIA INDRI PANGESTUTI        SPGM
030912843220000002949750001314010107ABIDAH                        MDMT
016630369240000002415250001314030167RADINA PUJI I                 MDMT
071203406750000002749750001314010084WARSITI                       MDMT
049103276450000002616250001314010106DEWI TRI UTAMI                MDMT
024816687960000002649750001314010137NENENG YULIYAH                MDMT
088506685410000003149750001314010081DIAN HANDAYANI                MDMT
016525007780000002515750001314010105REZEKI HANDAYANI              MDMT
055202648010000002649750001314010138NURAZIZAH                     MDMT
027615361940000003193825001314010080NINA PRAVITASARI              TLJB
074104528840000001986750001314020160SITI AMELIA                   SPGM
028714762780000003129750001314010082SITI RACHMAWATI               MDMT
016629406950000002749750001314010079MUTI HARAH                    MDMT
068402882750000003116250001314010097WARIATIN                      MDMT
016625716900000002749750001314010083SULISTIYANI                   MDMT
068402889410000002616250001314010098ROSIDAWATI                    MDMT
052107859830000002515750001314040169STEPIANA PASUNDA              MDMT
077501826100000002253500001314010075NENI FATIMAH                  MDMT
017613046960000003018000001314010077UMI FITRIA                    TLWE
016919288240000002124625001314010090INA MARIANA                   MDMT
012209999270000002058625001314010102SEPTI AYU MAHANANI            MDMT
013410073940000002553000001314010099MUHENI                        MDMT
028308917250000002252500001314030166YANI  MULYANI                 MDMT
003725798790000001758625001314010091SRI SUJARWATI                 MDMT
043504132140000001406950001314040167NI WAYAN SIADI                MDMT
087350255260000002275000001314010093M. YUSUF HAMID                MDMT
043502387900000001996950001314010073WIDYATININGSIH                MDMT
081150453810000002324500001314010092VINA AYU LESTARI              MDMT
025818202260000002541000001314010085EVI PUSPITASARI               MDMT
013021881780000002421000001314010095YUNINDA MEGAYANTI             MDMT
077505638770000002654000001314010076NOPIYANTI                     MDMT
001152444130000001501250001314020139ENNY KUSTYANINGTYAS           MDMT
011306047370000002821000001314010087YULI EKOWATI                  MDMT
043503807660000002292645001314010074NOFI LIYANA                   TLES
083201115290000002164000001314040171NENI NURHAYATI                MDMT
020903493790000002193500001314040170DEWI RATNASARI                MDMT
085750301370000001873933001314010110Maulia                        TLGT
081902617610000001523187001314010111Mardiansyah                   DRGT
085750594530000001072160001314040172Yanti Rahmayanti              SPGT
011919701310000001212430001314010113Nirmayanti                    STGT
011919701310000001259187001314040187Kurnia Apriyanti              STGT
081902635000000001399187001314020143Hidayatul Annisa              MDGT
085750614580000000726350001314040173Jamaludin Surya Hadikusuma    MDGT
083750687500000002183500001313110001Sumiati                       TLGT
082051267040000001914027001314040188Dodo Aziansyah                DRGT
081151247110000001588740001314040189Nurainun                      SPGT
017505518970000001650027001313110003Devi Wahyuni                  STGT
084302344810000001588740001314010121Mirta  Puspa Windari          STGT
081151037990000001790027001313110005Yuli Puspita                  MDGT
081151012140000001591167001314040190Sri Astuti                    MDGT
002129746150000002267333001313110013Susilawati                    TLGT
080550669020000001769453001313110008Rahman                        DRGT
011505274880000001650027001313110009Rohima                        SPGT
002129844590000001650027001313110010Novita Sari                   STGT
011505153660000001650027001313110011Kartini Apriliani             STGT
002130510130000001591167001314020145Dirganata                     MDGT
004507474240000001790027001314020146Metadela                      MDGT
022005690430000001261333001314040174Ripani                        TLGT
003423989340000000914587001314040175Wahyuni Fadilla               STGT
003424089810000000914587001314040176Nurul Ferayanti               STGT
003423978220000000928300001314040177Fuja Rika Lusiana             MDGT
003423679910000000994587001314040178Feby Musrifa                  MDGT
016625308020000000537167001313110019Abdul Matin Hakim             TLGT
024816110340000002437200001313110014Tugiman                       TLGT
006780276700000000908900001314040179Jhonnery Rianto Silaban       TLGT
060308841140000002327180001313110018Mahmudin                      DRGT
050101885220000001986495001314010125Mardi                         SPGT
060309000470000001909810001313110015Eli rahmawati                 STGT
060308102420000002063180001314010122Wulan Prihatna                STGT
006780270920000001958125001313110017Dewi Kurnia                   MDGT
047313576380000002121495001314020152Siti Rofiah                   MDGT
011804468220000002063180001313110026Nurlina                       STGT
058750046780000002437200001314010109Budhi Widiasmoro              TLGT
017301292180000001259187001313110065Faridatul Fitriyah            MDGT
076407485960000002064125001314020156Iwan Akwadi                   DRGT
058750211490000000606165001314040180Muslih                        SPGT
071308716790000001909810001314040191Sinta Handika                 STGT
068402890260000002039810001313110037One Hari Prasetio             MDGT
076407314720000002203180001314020148Yuyun Yunengsih               MDGT
076406032020000000989590001314020157Pujaria Nasution              SPGT
024654700610000001814625001314010089ANGGORO EKO                   MDMT
024652128430000002331487001314010088SRI ASIH                      TLCT
011919771950000001729673001314010096SRI WAHYUNI                   MDMT
043713773730000002146000001313110038Aria Maulantini               TLGT
015714574370000001730000001313110040Achmad Maulani                DRGT
028307584130000001466000001313110039Nia Mulyawati                 SPGT
034625251490000001606000001313110042Asep Jaelani                  MDGT
034625402530000001606000001313110043Iwan Setiawan                 MDGT
034625402530000001466000001314040194Irma Rizkiani                 STGT
023119922460000002267333001313110044Patmawati                     TLGT
023100408460000001914027001314010127Cucu Eka Novan Sapari         DRGT
060902837300000001650027001314010128Raden Yulianti                SPGT
060902837300000000914587001314040181Apriliani Ghozali             STGT
068402581470000001650027001314030165Yenni Trimurti                STGT
068402581470000001790027001314040182Aan Heryadi                   MDGT
085450111030000001873933001313110048Emi Kurniawati                TLGT
000955766940000001330733001313110051Hadi Tri Atmoko               DRGT
024654948900000001330733001313110052Aris Hari Wibowo              DRGT
018203907050000001045167001313110049Sri Hartini                   SPGT
024653128990000001045167001313110050Indrasari Wahyu Lestari       SPGT
085450723400000001218733000131402150Ricky Hendra Radityo          MDGT
000956047360000000490233001314020149Niken Sita Resmi              MDGT
003730085050000001873933001313110053Winarsih                      TLGT
044511775290000001219433001313110056Taufik Anwarudin              DRGT
044512317610000001494433001313110057Mahmud                        SPGT
012606252130000001088733001313110054Yeni Setyawati                STGT
003733136850000001088733001313110055Rokhimawati                   STGT
003733136850000001873933001313110060Imam Sugiarto                 TLGT
081609138100000001523187001313110063Singgih Slamet Riyadi         DRGT
017301261380000001118917001314010129Intania Rahmawati             STGT
081609903180000001212430001314020153Dian Tapsian Indah            STGT
081608275730000001399187001314040196Erita Dilah                   MDGT
003316301940000002267333001313110066Puji Lestari                  TLGT
010108361970000001650027001313110069Hanafi                        SPGT
042905966240000001914027001313110070Widodo Setiawan               DRGT
061703173760000001650027001313110071Yudhi Ardiansyah              SPGT
001834392410000001650027001313110068Lailun Nisfiyah               STGT
010105316210000001790027001313110072Norma Indah Safitri           MDGT
010105316210000000653067001314040183RINI JULIASNI                 STGT
010105316210000000653067001314040184NURAINI                       STGT
005612507810000000733067001314040185AYU SUARI                     MDGT
005612507810000000733067001314040186NANI SOPIANI                  MDGT
029205293830000001525017001313110027Rian Rifki Dosan Anwar        TLGT
002012180540000000512233001314040197Anwar Sholeh                  DRGT
043003942600000001175867001313110029Fitriyana                     SPGT
002011713090000001088733001313110030Ria Febriyanti                STGT
002011713090000001315867001314010119Arif sadono                   MDGT
002011713090000001170167001314040193Muhammad Suhendra             MDGT
081750917310000001706625001314010133DINAR INDRI HASTUTI           MDMT
024655046910000001412625001314040198IIN WAHYUNINGRUM              MDMT
047612758900000002749750001314010078MULYATI                       MDMT
