00000000000684000036MOKI0201684028515210MF0012200000227254135.00062014
081150453810000001712265001314010092VINA AYU LESTARI              MDMT
023119922460000002872796001313110044Patmawati                     TLGT
016919288240000001538970001314010090INA MARIANA                   MDMT
013021881780000002400000001314010095YUNINDA MEGAYANTI             MDMT
042303032530000002419171001314040168EKA YULIANTI                  SPGM
071308759250000002472171001314020161YULIA INDRI PANGESTUTI        SPGM
076004255140000002477701001314010132DEVI APRIYANTI                SPGM
053151088510000002461171001314020159EKA PURWANTI                  SPGM
028308917250000002283000001314030166YANI  MULYANI                 MDMT
077501826100000002283000001314010075NENI FATIMAH                  MDMT
077501826100000002283000001314010075NENI FATIMAH                  MDMT
077501826100000002283000001314010075NENI FATIMAH                  MDMT
077501826100000002283000001314010075NENI FATIMAH                  MDMT
049103267200000002483171001314010104ADE AFRIANI                   SPGM
077505638770000002283000001314010076NOPIYANTI                     MDMT
017613046960000002633000001314010077UMI FITRIA                    TLWE
020903493790000002136000001314040170DEWI RATNASARI                MDMT
083201115290000001845000001314040171NENI NURHAYATI                SPGM
013410073940000001586850001314010099MUHENI                        MDMT
024655046910000001701150001314040198IIN WAHYUNINGRUM              MDMT
024652128430000002114150001314010088SRI ASIH                      TLCT
024654700610000001743150001314010089ANGGORO EKO                   MDMT
030912843220000002680171001314010107ABIDAH                        MDMT
024655351710000000773025001314050201JONATHAN NASUTION             MDMT
016525220620000001162916001314050199TINUK PRIHATINI               MDMT
068402889410000000634321001314010098ROSIDAWATI                    MDMT
005612421180000001572000001314010136YENI RAHMAWATI                MDMT
011919771950000001835070001314010096SRI WAHYUNI                   MDMT
088506685410000002685701001314010081DIAN HANDAYANI                MDMT
049103276450000002617171001314010106DEWI TRI UTAMI                MDMT
065710257010000002685701001314010103LIA SUSANTI                   MDMT
065710257010000002685701001314010103LIA SUSANTI                   MDMT
027615361940000003030171001314010080NINA PRAVITASARI              TLJB
003725798790000001538970001314010091SRI SUJARWATI                 MDMT
016625716900000002685701001314010083SULISTIYANI                   MDMT
068402882750000002680171001314010097WARIATIN                      MDMT
024816687960000002617171001314010137NENENG YULIYAH                MDMT
047612758900000002680171001314010078MULYATI                       MDMT
077505638770000002283000001314010076NOPIYANTI                     MDMT
028308917250000002283000001314030166YANI  MULYANI                 MDMT
071203406750000002617171001314010084WARSITI                       MDMT
028714762780000002659171001314010082SITI RACHMAWATI               MDMT
016629406950000002598300001314010079MUTI HARAH                    MDMT
016629406950000002598300001314010079MUTI HARAH                    MDMT
016525007780000002617171001314010105REZEKI HANDAYANI              MDMT
060902837300000001754020001314010128Raden Yulianti                SPGT
023100408460000001604020001314010127Cucu Eka Novan Sapari         DRGT
023100408460000002069020001314040181Apriliani Ghozali             STGT
023100408460000002069020001314040181Apriliani Ghozali             STGT
068402581470000002114020001314030165Yenni Trimurti                STGT
068402581470000000686780001314040182Aan Heryadi                   MDGT
011306047370000002463000001314010087YULI EKOWATI                  MDMT
012209999270000001559970001314010102SEPTI AYU MAHANANI            MDMT
050650628090000002463000001314010086RITA OKTAFIA                  MDMT
025818202260000002463000001314010085EVI PUSPITASARI               MDMT
001152444130000001911300001314020139ENNY KUSTYANINGTYAS           MDMT
043502387900000001808340001314010073WIDYATININGSIH                MDMT
043504132140000001871340001314040167NI WAYAN SIADI                MDMT
043503807660000002221340001314010074NOFI LIYANA                   TLES
087350255260000002124000001314010093M. YUSUF HAMID                MDMT
083051726490000001838265001314030163JULIANA CHAN                  MDMT
055202648010000002680171001314010138NURAZIZAH                     MDMT
052107859830000002622701001314040169STEPIANA PASUNDA              MDMT
085750301370000002381028001314010110Maulia                        TLGT
085750594530000001561254001314040172Yanti Rahmayanti              SPGT
011919701310000001576254001314010113Nirmayanti                    STGT
081902635000000001941254001314020143Hidayatul Annisa              MDGT
083750687500000002692438001313110001Sumiati                       TLGT
082051267040000002047004001314040188Dodo Aziansyah                DRGT
017505518970000001864004001313110003Devi Wahyuni                  STGT
081151247110000001819004001314040189Nurainun                      SPGT
081151037990000002231004001313110005Yuli Puspita                  MDGT
081151012140000002231004001314040190Sri Astuti                    MDGT
003423978220000002156800001314040177Fuja Rika Lusiana             MDGT
003423679910000002156800001314040178Feby Musrifa                  MDGT
002129746150000002692438001313110013Susilawati                    TLGT
081902617610000000542232001314010111Mardiansyah                   DRGT
085750614580000000606232001314040173Jamaludin Surya Hadikusuma    MDGT
085750614580000000606232001314040173Jamaludin Surya Hadikusuma    MDGT
081902693200000000617790001514050001Neni Fitriani                 STGT
081901673570000000757790001514050002Agus Faisal                   MDGT
084302344810000000977002001314010121Mirta  Puspa Windari          STGT
022005690430000002491428001314040174Ripani                        TLGT
003423989340000000361500001314040175Wahyuni Fadilla               STGT
003424089810000000578400001314040176Nurul Ferayanti               STGT
080550669020000002047004001313110008Rahman                        DRGT
011505274880000001909004001313110009Rohima                        SPGT
002129844590000001894004001313110010Novita Sari                   STGT
011505153660000001864004001313110011Kartini Apriliani             STGT
004507474240000002231004001314020146Metadela                      MDGT
080551358580000000980694001514050006Valentino Revaldo             MDGT
002130510130000000713232001314020145Dirganata                     MDGT
002130510130000000713232001314020145Dirganata                     MDGT
024816110340000003138390001313110014Tugiman                       TLGT
024816110340000003138390001313110014Tugiman                       TLGT
024816110340000003138390001313110014Tugiman                       TLGT
060308841140000002638400001313110018Mahmudin                      DRGT
060309000470000001076900001313110015Eli rahmawati                 STGT
060308102420000000000000001314010122Wulan Prihatna                STGT
050101885220000000000000001314010125Mardi                         SPGT
006780270920000000000000001313110017Dewi Kurnia                   MDGT
047313576380000002648400001314020152Siti Rofiah                   MDGT
006780276700000003012390001314040179Jhonnery Rianto Silaban       TLGT
075404889370000003165422001514050007Natalia Napitupulu            TLGT
052109263400000002371458001514050010Rifka Dinar Br Silitonga     STGT
068709734610000002130527001514050011Devi Purnama Sari             MDGT
011804468220000000000000001313110026Nurlina                       STGT
029205293830000000000000001313110027Rian Rifki Dosan Anwar        TLGT
043003942600000000000000001313110029Fitriyana                     SPGT
002011713090000000693720001313110030Ria Febriyanti                STGT
002011713090000000000000001314010119Arif sadono                   MDGT
002012180540000000000000001314040197Anwar Sholeh                  DRGT
002011978040000001413060001514050012Sella Selviana                STGT
002011978040000001606060001314040193Muhammad Suhendra             MDGT
058750046780000002949390001314010109Budhi Widiasmoro              TLGT
076407485960000001350700001314020156Iwan Akwadi                   DRGT
071308716790000001664300001314040191Sinta Handika                 STGT
058750211490000001739300001314040180Muslih                        SPGT
058750211490000002455400001314040180Muslih                        SPGT
076407314720000000000000001314020148Yuyun Yunengsih               MDGT
058750220720000000195800001514050013Sakila Junaedi                STGT
068402890260000002648400001313110037One Hari Prasetio             MDGT
