00000000000684000036MOKI0101684028515210MF0018200000364366060.00092014
000956574650000002469150001314060225Yuliana Sartika               MDMT
024654700610000002469150001314010089Anggoro Eko Prabowo           MDMT
085750301370000002298300001314010110Maulia                        TLGT
085750594530000001638070001314040172Yanti Rahma Yanti             SPGT
011919701310000001605070001314010113Nirma Yanti                   STGT
081902635000000001898070001314020143Hidayatul Annisa              MDGT
081902693200000001638070001314050202Neni Fitriani                 SPGT
081902780600000001772070001314070244Jamawi Fadri                  DRGT
078702707090000000511019001314070276Junaidi                       MDGT
082051267040000000511879001314040188Dodo Aziansyah                DRGT
017505518970000001619265001313110003Devi Wahyuni                  STGT
081151247110000001619265001314040189Nurainun                      SPGT
082004069590000001553265001314070245Junita Novella                STGT
081151037990000001796265001313110005Yuli Puspita                  MDGT
081151012140000001838265001314040190Sri Astuti                    MDGT
083750687500000002196850001313110001Sumiaty                       TLGT
083052088480000000511879001314070277Fani Rizki                    MDGT
022005690430000002550000001314040174Ripani                        TLGT
003423679910000002059500001314040178Feby Musrifa                  MDGT
003424100800000002122500001314050213Yuliana Isnani                SPGT
003418487910000001933500001314050214Afrizal                       DRGT
014405166840000001740500001314050215HERLINA                       SPGT
003424235560000001806500001314060227Sri Mulyani                   STGT
003424231060000001872500001314060228Fitri Yanthi                  STGT
002129746150000002579600001313110013Susilawati                    TLGT
080550669020000002147040001313110008Rahman                        DRGT
011505274880000001907040001313110009Rohimah                       SPGT
002129844590000001907040001313110010Novita Sari                   STGT
011505153660000001874040001313110011Kartini Apriliani             STGT
004507474240000002084040001314020146Metadela                      MDGT
080551358580000002147040001314050216Valentino Revaldo             MDGT
060308841140000002617171001313110018Mahmudin                      DRGT
060308102420000000668546001314010122Wulan Prihatna                STGT
050101885220000002554171001314010125Mardi                         SPGT
006780270920000002617171001313110017Dewi Kurnia                   MDGT
047313576380000002428171001314020152Siti Ropiah                   MDGT
054705171500000000654546001314060229Riyanto                       MTR
068002694480000002417171001314060230Laily Friyanti                SPGT
006780701410000000624546001314060231Melinda                       SPGT
075404889370000003201445001314050204Natalia Napitupulu            TMLD
023023428230000002538701001314060232Essy Puspita Sari             MDGT
063307728810000002643701001314060233Yuyun Wahyuni                 MDGT
023022991890000000957193001314050206Dian Wijayanti                SPGT
052109263400000002400701001314050207Rifka Dinar Br Silitonga     SPGT
027575084910000002466701001314070246Tiurlan Saragi                SPGT
027575084910000001052912001314070278Yeni Mutiara Indah S          STGT
009523289460000003043350001314070237Seliyana                      TMLD
088008546880000002381115001314070247Novi Yanti                    STGT
088008350630000002381115001314070248Novita                        STGT
009526735460000002621115001314070249Iis Risgianti                 MDGT
073804067260000002621115001314070250Resti Pertiwi                 MDGT
009534542510000003043350001314070238Trio Narno Nurdiansyah        KOMT
016703290510000002558115001314070252PEKIH FAUZI                   MTR
016703290510000000512138001314080269Nurhadi                       MTR
016703290510000000184855001314080268Ratih Puspitasari             SPGT
016703290510000000921848001314080267Hari Kusuma Atmaja            DRGT
011804468220000002428171001313110026Nurlina                       STGT
043003942600000001523133001313110029Fitriyana                     SPGT
043003942600000001763133001314010119Arif sadono                   MDGT
002012180540000001763133001314040197Anwar Soleh                   DRGT
002011913420000001523133001314060234Yunita Ratmanasari            STGT
002011913420000001763133001314040193Muhammad Suhendra             MDGT
002012376360000001523133001314070253Eva Yanti                     STGT
076407314720000002409871001314020148Yuyun Yunengsih               MDGT
075301774530000002661871001314070255Tomy Darma Yangsah            MDGT
071308862340000002598871001314070254BOBBY RAHMAN                  MDMT
043713773730000002817000001313110038Aria Maulantini               TLGT
043713773730000002367000001314070279Asep Saepulloh                DRGT
028307584130000002097000001313110039Nia Mulyawati                 SPGT
034625251490000002367000001313110042Asep Jaelani                  MDGT
034625251490000002097000001314040194Irma Rizkiani                 STGT
023119922460000002728000001313110044Patmawati                     TLGT
068402581470000002121000001314030165Yenni Trimurti                STGT
023124953850000001030615001314050200Andri Sopandi                 MDGT
023100408460000002394000001314010127Cucu Eka Novan Sapari         DRGT
023118863650000002394000001314060236Yeni Cristianti               SPGT
023125853410000002854000001314070257Weni Ferdiani                 TMLD
037818357470000002154000001314070256Teti Kurnia                   STGT
037818357470000000613846001314070282Rina Ariani                   MTR
037818357470000000749538001314070281Arti Setia Pribadi            MTR
023125974550000001934000001314070280Wawat Rahmawati               STGT
085450111030000002240500001313110048Emi Kurniawati                TLGT
018203907050000001578150001313110049Sri Hartini                   SPGT
024653128990000001785150001313110050Indrasari Wahyu Lestari       SPGT
000955951410000001848150001314050221Panggih Bayu Samporno         MDGT
036203744730000001806150001314070284Ade Dwi Ekayana               DRGT
003730085050000001990300001313110053Winarsih                      TLGT
044511775290000001319970001313110056Taufik Anwarudin              DRGT
044512317610000001559970001313110057Mahmud                        SPGT
012606252130000001220970001313110054Yeni Setyawati                STGT
003733136850000001209970001313110055Rokhimawati                   STGT
003733136850000002362000001313110060Imam Sugiarto                 TLGT
081609138100000001953300001313110063Singgih Slamet Riyadi         DRGT
081609903180000000923085001314020153Dian Tapsian Indah            STGT
017301292180000001703300001313110065Faridatul Fitriyah            MDGT
081608275730000001063085001314040196Erita Dilla                   MDGT
040016327060000001063085001314050212Sulistiorini                  MDGT
040016327060000001008192001314080270Supriadi                      KOMT
081610524850000000607477001314070300Indri Romantika               MDGT
081610524850000000683412001314080273Lukitasari                    MDGT
081610524850000000531542001314080274Yudi Purnomo                  MTR
081610524850000000835281001314080275Efendi Fitria Yulianto        MTR
081610524850000000379673001314080276Ruli Erbi Esaputra            MTR
081610524850000000593412001314080271Karin Putri Rosari            STGT
081610524850000000527477001314080272Zhurachmatuz Rizka Amalia    STGT
081610524850000000379673001314080277Achmad Harsoni                MTR
082907546320000000971538001314070292Andy Njoto Soesilo            MTR
046503552320000000971538001314070291Ubaidillah Mushifin           MTR
025818367510000000971538001314070290Syamsul Nurul Aulia           MTR
067204445830000002358000001314070289Junianto Mochtar Prabowo     MTR
050651234840000000485769001314070288Nunuk Ratnawati               MDGT
067204351770000000582923001314070287Dewi Susanti                  MDGT
001836328220000002244000001314070286Dwi Retno Wahyuningtyas       STGT
082207937200000002244000001314070285Ayu Wulan Octavia             STGT
010108361970000002484000001313110069Hanafi                        SPGT
042905966240000002484000001313110070Widodo Setiawan               DRGT
061703173760000002178000001313110071Yudhi Ardiansyah              SPGT
001834392410000002484000001313110068Lailun Nisfiyah               STGT
010105316210000002954000001313110072Norma Indah Safitri           MDGT
005612341660000001733000001314050218Ni Made Yuni Sudhiarsini     TMLD
005612501530000001985000001314050219Erwin  Satriawan              DRGT
005612636540000000960808001314070294Nanik Julianti                SPGM
026903106710000000506846001314070295Desy Pebrina Ariska           STGT
005612600780000001551000001314070296Ni Made Ami Sundari           MDGT
005612826320000001551000001314070298Abdussamad                    MTR
005612343440000001551000001314070243Dyki Bodan                    MTR
005612827300000001006154001314070299Nasrullah SPd                 MTR
005609585010000001551000001314050222Ni Wayan Ayu Sudiani          STGT
005612595090000001331000001314050220Fitri Rahmawati               STGT
005612615030000001614000001314070242Iwan Budi Purwanto            MTR
076004255140000003110701001314010132DEVI APRIYANTI                SPGM
088506685410000003580701001314010081DIAN HANDAYANI                MDMT
068710257010000003407701001314010103LIA SUSANTI                   MDMT
016625716900000003560701001314010083SULISTIYANI                   MDMT
060903002510000003477701001314060226ADE WIRYA                     MDMT
016525220620000002255789001314050199Tinuk Prihatin                MDMT
075104139240000001057193001314080259Ina Fitriah                   MDGT
023402475510000001057193001314080260Boby Yulianto                 MDMT
068707679250000000740035001314080263Lena Paradiana                MDMT
049103267200000003105171001314010104ADE AFRIANI                   SPGM
009519719940000001829130001314060223Ike Hikmatinah                MDMT
068205136470000000819420001314080262Widuri Resva                  MDMT
027615361940000004029301001314010080NINA PRAVITASARI              TLJB
030912843220000003172171001314010107ABIDAH                        MDMT
053151088510000002032599001314020159EKA PURWANTI                  SPGM
049103276450000003385171001314010106DEWI TRI UTAMI                MDMT
042303032530000003105171001314040168EKA YULIANTI                  SPGM
047612758900000003472171001314010078MULYATI                       MDMT
024816687960000002919171001314010137NENENG YULIYAH                MDMT
055202648010000002177092001314010138NURAZIZAH                     MDMT
016525007780000003259171001314010105REZEKI HANDAYANI              MDMT
028714762780000003533171001314010082SITI RACHMAWATI               MDMT
071308759250000003052171001314020161YULIA INDRI PANGESTUTI        SPGM
068402882750000003522171001314010097WARIATIN                      MDMT
071203406750000003363171001314010084WARSITI                       MDMT
077501826100000002988000001314010075NENI FATIMAH                  MDMT
077505638770000002925000001314010076NOPIYANTI                     MDMT
083201115290000002708000001314040171NENI NURHAYATI                SPGM
020903493790000000988154001314040170DEWI RATNASARI                MDMT
028308917250000002988000001314030166YANI  MULYANI                 MDMT
017613046960000003609000001314010077UMI FITRIA                    TLWE
016629406950000003345300001314010079Muti Haroh                    MDMT
068403052930000001039731001314080261Julian Jaya                   MDMT
001152444130000002916300001314020139ENNY KUSTYANINGTYAS           MDMT
012209999270000002243970001314010102SEPTI AYU MAHANANI            MDMT
016919288240000002222970001314010090INA MARIANA                   MDMT
003725798790000002243970001314010091SRI SUJARWATI                 MDMT
025818202260000003147000001314010085EVI PUSPITASARI               MDMT
050650628090000003168000001314010086RITA OKTAFIA                  MDMT
011306047370000003105000001314010087YULI EKOWATI                  MDMT
013021881780000003147000001314010095YUNINDA MEGAYANTI             MDMT
081150453810000002478265001314010092VINA AYU LESTARI              MDMT
083051726490000002801265001314030163JULIANA CHAN                  MDMT
011919771950000002390070001314010096SRI WAHYUNI                   MDMT
043503807660000003130600001314010074NOFI LIYANA                   TLES
005612421180000001814000001314010136YENI RAHMAWATI                MDMT
043504132140000002287340001314040167NI WAYAN SIADI                MDMT
043502387900000000971988001314010073Widiatiningsih                MDMT
087350255260000002808000001314010093M. YUSUF HAMID                MDMT
000954992150000001024675001314060224Fitri Ana Wati                SPGM
024652128430000003032500001314010088SRI ASIH                      TLCT
024655351710000002427150001314050201JONATHAN NASUTION             MDMT
